:020000020000FC
:1000000016C095C0189518951895189518951895B7
:100010001895189518951895189518951895189578
:08002000189518951895189524
:10002C00189502E00EBF0FE50DBF04B703FF1FD0FC
:10003C00001B0ABB1FE31BBB10EC1ABB11E51DB95F
:10004C001FE000E85CD012E061D0006458D01FE0E3
:10005C0001BD04B703FF45D0111B001B5DD0001B75
:10006C0005BF0093A40052D178948895FDCF0E94CF
:10007C00B109B0E0A0E6D0E0C6EC001B0D932197CF
:10008C00E9F740E030E3D0E0C2E696D32883D0E035
:10009C00CEE692D32883D0E0CAE78ED3288301E042
:1000AC008ED108950AD03FB8779BFECF3FB02FB8C2
:1000BC00779BFECF2FB00BD0089513B2002314F40E
:1000CC00102A03C000951022009513BA089513B29C
:1000DC00002324F4009510220095F7CF102A13BAB0
:1000EC00089536E82CE005D028E003D024E001D0B8
:1000FC000895332E222ED6DF9E9BFECF08951068D6
:10010C00312E1F77202E04E8CDDF0895312E202EBE
:10011C0004E8C8DF022D0895312E202E02E0C2DF44
:10012C000895F4D004EA002319F40BD001E004C0C4
:10013C00F0E0ECE650D0001B0093A40005D18DD369
:10014C001895F0E0E0E647D04091B100442301F16E
:10015C004091B200442369F0FF93EF93F0E0F8E78D
:10016C00008311833CD03896D0E0C5EA83D3EF915D
:10017C00FF910091B00003FF09C0FF93EF93F0E0F3
:10018C00ECE6D0E0C9EA76D3EF91FF9175D009C0C7
:10019C00F0E0E0E058D5F2E0EDE7B0D4F0E0E0E0DC
:1001AC0099D3F0E0E0E0D0E0C3EF0ED3F0E0E4E769
:1001BC000091B00004FB56F446D5F2E0EBE79ED478
:1001CC00F2E0F9E8F7D3F0E0ECE984D3D0E0DBEC33
:1001DC00FBD242D3089503D032D06BD00895DF2FD9
:1001EC00CE2F0281002E34960081419110815191C5
:1001FC00208161913081719111181A941394069495
:10020C00E8F776956795579547951A94D1F7041B9F
:10021C00150B260B370BFD2FEC2F30964191040F4D
:10022C004191141F441B241F341FFD2FEC2F3496B7
:10023C000193119321933193FD2FEC2F0895DF2F10
:10024C00CE2F5281661B00811181228133815695FC
:10025C0028F03695279517950795F9CFF0E0E0EA49
:10026C000083118322834383D6D4FD2FEC2F349645
:10027C0031D3FD2FEC2F0895FF93EF93F0E0E4E7DB
:10028C00E2D4F2E0E7E796D3EF91FF91FF93EF937F
:10029C00389620D3FED3F2E0E9E730D4EF91FF910A
:1002AC00FF93EF9338962AD4EF91EF91389612D3AF
:1002BC000895F0E0E8E6C7D4FB2FEA2F38967CD4FB
:1002CC000CF438973896BFD4389765D3F0E0E0EA51
:1002DC0001D3FB2FEA2F3C96B6D438975CD3F0E0D1
:1002EC00E0EADFD3F0E0E0EAF5D2F0E0E8E6ABD408
:1002FC00FB2FEA2F50D3F0E0E0EA00D4FB2FEA2FDB
:10030C003496FCD3F0E0E0E0E5D208950F9304EAD4
:10031C000395023008F0001B000F000F000F000FB8
:10032C00202E06E8302E01E0BDDE0F910895DF018E
:10033C000802DE01DE01DE01DE01BA02F5023E0337
:10034C006C037F03A603DE0106B3019516E0221BA6
:10035C002093AF002395069528F01A95D9F71093A2
:10036C00AE0026C03091AE002093AE00321701F5DE
:10037C0000EB00FB7EF42093AF000091B200C1F0C3
:10038C000695069506950695F1E0E2EA111BE00F3D
:10039C00F11F09942A95220FF1E0EDE9111BE20FF0
:1003AC00F11FEE0FFF1FA591B591FB2FEA2F0994BA
:1003BC0008950091B1000395023008F0001B0093E2
:1003CC00B10000E01CE04AD2F2E0E1E559D2000FA6
:1003DC00000F111BF2E0E7E3E00FF11FEE0FFF1F20
:1003EC0005911591F02FE12F03954AD2F0E0E4E846
:1003FC0056E001EB16E0019F002DCFD103955A95E5
:10040C00E1F708950091B2000395043008F0001B49
:10041C000093B200002351F00091B00001600093F2
:10042C00B00001E00093B3000093B4000AE119E1BD
:10043C0015D20091B200002399F006950695069509
:10044C000695D1E0C2EA111BC00FD11FE881F981DA
:10045C00369713E002E022D2329603951A95D9F71B
:10046C0008953F02000000000000410243024502D3
:10047C0047026D56200070482000342E3000372E75
:10048C00300031302E300000302E30B0430031308F
:10049C00302E30B043004D6F64653A20000043614C
:1004AC006C6962726174652000005443204D6F6466
:1004BC00653A20004175746F20004D616E75616C5A
:1004CC002000446F776E00005570000053656C007F
:1004DC00536176650000B0430000B04600004F66E3
:1004EC0066003393884333139543E3380E3F6F1202
:1004FC008340000000000000803F0000003F00002F
:10050C0000BF00002041000000420091B0000070CC
:10051C000093B000001B0093B20051DF01E0009388
:10052C00B4000AE119E19AD10895111B3091B4007D
:10053C001093B40030FB08950091AF00111B109381
:10054C00AF00002389F30A95069506950695069546
:10055C00111BE00FF11F09948B029A02DE02E402D8
:10056C00D00267026A026E02B0E0A0E00091B10016
:10057C0018E1019FA00DB11DD8DF4EF4D2E0C7E306
:10058C000091B10014E0019FC00FD11F57D0F2E0D1
:10059C00E2EBD2CF0091B1001CE0019F1091B300AF
:1005AC00110F110F010FB0E0A5EA0E94BC03BCCFE4
:1005BC000091B3000A9540F4001B06C00091B300F3
:1005CC000395033008F002E00093B300D7CF8B0201
:1005DC009A0215031B030A0367026A026E02B0E05B
:1005EC00A0E0A3DF76F4F2E0F5E5001B49D103951A
:1005FC00F2E0EDE41091B300123011F0F2E0EAE415
:10060C003FD1B2E0ADEE98CF02E01091B3001130C3
:10061C0009F004E0B0E0A4E70E94BC0385CF009190
:10062C00B3000A9541F401E006C00091B3000395B4
:10063C00033008F002E00093B300D5CFF2E0F5E50B
:10064C00001B1ED10395E881F8811AD103951091F6
:10065C00B3001395110F221BE10FF21F11D1089556
:10066C008B029A02530356035F0371027302540206
:10067C005CDF86F4001B0093B300001BF2E0EBE59B
:10068C00FFD0F2E0E0E64091B00043FB16F4F2E05C
:10069C00E3E6F6D0B3E0A6E34FCFB2E0A5E802C0A4
:1006AC00B2E0A3E8F0E0E9EACED2FB2FEA2F17D1B3
:1006BC003BCF38E043274093B000DFCF8B029A0248
:1006CC006F0373039A02710273025402B3E0A4E63F
:1006DC0033CF001B00939C0027CF01E000939C00BC
:1006EC0023CF8B029A0282038E039A0367026A025B
:1006FC007502B3E0A7E720CF0091AD000023B9F05D
:10070C0011E00B3008F015E0011B0093AD000CCF8D
:10071C000091AD00002359F015E00A300CF411E003
:10072C00011B0093AD0000CF001B0093AD00FCCE6D
:10073C008B029A02AB03B103B90371027302540228
:10074C00F4DE06F4B3E0AEE9F7CE0091B5000A95FD
:10075C0060F0001B05C00091B500083034F403951F
:10076C000093B500EFCF0091B500DECE14E0302F32
:10077C00441B330F441F330F441F00182D9105D019
:10078C003395401D1A95D1F70895E199FECF4FBBD3
:10079C003EBB2DBBE29AE19A089514E0302F441B26
:1007AC00330F441F330F441F001806D02193339589
:1007BC00401D1A95D1F70895E199FECF3EBB4FBB72
:1007CC00E09A2DB3E0980895DF93CF933CD207FBCA
:1007DC002EF40DE209931A9490E809272218F2E0FE
:1007EC00E1E8EAD124F0F2E0E7E85BD1F8CF40E3AE
:1007FC00442E4FEF542E12183CF121F040E2499355
:10080C001A94E1F7222021F44EE2499342E0542E4F
:10081C00F2E0E7E873D121D2A3D0F0E0E0EA5AD0BD
:10082C00040D1993F8D1F0E0E0EA54D01CD2B3D007
:10083C005A9411F02A94E6CFCF91DF912296088139
:10084C00003249F4488207C005E01AE219930A9570
:10085C00E9F7CF91CF91089508950895112349F0A8
:10086C00D0E0CFEB221BC00FD21F20E229931A95A8
:10087C00E9F7089514E0019009921A95E1F70895AB
:10088C00EE0FFF1FD0E0CFEB111BC00FD11F159146
:10089C00112319F019930395FACF0895202E312EB8
:1008AC004E2E5F2E15E0019FD0E0CBEFC00DC11D89
:1008BC0015E06190662019F069921A95D1F7112311
:1008CC0021F000E209931A95E9F7F52DE42D132D8B
:1008DC00022D0895D082E182F28203830895089557
:1008EC00E7D11F930F9300230AF4A3D09FE7901B2B
:1008FC00C92EE0E7FDE0D3D160D132F4E8E6FDE0AB
:10090C00CED102D1C394F5CF9F91892F91959C0D97
:10091C009F57C92E807849D01F9122D0C4E1D1E0D5
:10092C0011231AF49DE2999384D0E0E4FDE086E073
:10093C008F93B5D19927D216E306F40628F0D21A74
:10094C00E30AF40A9395B9F7906399938F918A957A
:10095C0079F79D2D906399938993C992B2C173D104
:10096C00CBD109F4C5C096E1901B0AF4BAC09831FA
:10097C0008F0BEC0983030F0DE2CEF2CF92C992406
:10098C009850F8CF992331F09694F794E794D79434
:10099C009A95D1F708955CD1AFD1503829F090E8F1
:1009AC0069270CC00AF05FD1BBC15FE32227332754
:1009BC00442701C04DD1A0D15038B1F3003899F380
:1009CC00902F951B8BF312F44ED1FACF983118F06F
:1009DC00222733274427983028F0232F342F4427FD
:1009EC009850F9CF992329F04695379527959A95E4
:1009FC00D9F7912F962742F014D0B0F6F794E794DC
:100A0C00D7940F5F8BF66DC010D051F008F414D052
:100A1C00FF2052F2DD0CEE1CFF1C0150CBF761C025
:100A2C0067C0D20EE31EF41E0895D21AE30AF40A2C
:100A3C00089562D1109574C19FEFD91AE90AF90A89
:100A4C000895DD0CEE1CFF1C771F08959924AA2431
:100A5C00BB2488E1D216E306F40628F0D21AE30A86
:100A6C00F40A089401C08894991CAA1CBB1CDD0CC8
:100A7C00EE1CFF1C8A9571F7DF92D92CEA2CFB2C0B
:100A8C009F91969528F4D39419F4E39409F4F39474
:100A9C000895D9D0E2D0DD24EE2490E8F92E0FE3AE
:100AAC0006C0D6D004C02227332740E251E4552398
:100ABC00B9F00023E9F020D1D9F016270894050BE2
:100ACC0083F0469537952795F694E794D794BEDF37
:100ADC00FF202AF0DD0CEE1CFF1C015013F020C18E
:100AEC0007C09FE7092FF92A9FEFD92EE92E089509
:100AFC00DD24EE24FF24002711270895A9D004C07B
:100B0C0051E440E233272227F7D091F3503881F398
:100B1C0016270894051F2BF30AD0FF202AF0BB0CD4
:100B2C00DD1CEE1CFF1CFCC00F5FDBF2F9C09F93B9
:100B3C008F939924AA24BB24992788E1990CAA1C89
:100B4C00BB1CDD1CEE1CFF1C30F4920EA31EB41E4D
:100B5C00D91EE91EF91E8A9589F78F919F910895E8
:100B6C0072D07BD0D1CF22273327442750E4A3CF98
:100B7C00BFCF69D00023E1F3DAF35D2C6E2C7F2C10
:100B8C00802EF1DF6AD095E09F93A4D0D52CE62C73
:100B9C00F72C082D8CDFA7D00EDFE5DF5ED09F9100
:100BAC009A9591F708957BD008C0EF93FF93EC2FA3
:100BBC00FD2F49D0FF91EF914BD002D0992308958E
:100BCC00002382F0552342F0051740F029F4D21689
:100BDC00E306F40618F021F091E008959FEF0895D4
:100BEC00992708955523D2F75017B0F3B9F72D155F
:100BFC003E054F0588F3A1F3F1CF2FD022DF21DF83
:100C0C0010DF7F4F1ECFF9DF33274427292F2F709A
:100C1C0008DF7F4F089517D0702F9D2D9E299F2997
:100C2C00972B09F465CF77230AF406DF0EE17723BF
:100C3C0032F00A95DD0CEE1CFF1C771FF9CFDE2C71
:100C4C00EF2CF72E6DC0D190E190F19001910895A9
:100C5C0021913191419151910895502F2D2D3E2D7F
:100C6C004F2D612F0895DF92EF92FF920F931F93F8
:100C7C00D22EE32EF42E052F162F6F915F914F91EC
:100C8C003F912F910895C89531960895FCDFD02C93
:100C9C00FADFE02CF8DFF02CF6DF002D0895F3DFFF
:100CAC00202DF1DF302DEFDF402DEDDF502D08959D
:100CBC00D0921E01E0921F01F092200100932101BD
:100CCC000895D0901E01E0901F01F090200100913A
:100CDC002101089520932201309323014093240194
:100CEC0050932501089520912201309123014091C8
:100CFC0024015091250108959F93102F90E8FF0C2B
:100D0C00001F0927990FF7941078652F90E8440F6E
:100D1C00551F5927990F479560789F910038089572
:100D2C009F93FF0C90E89027110F9795F794092F3C
:100D3C009F91089540420F00A086010010270000EB
:100D4C00E8030000640000000A000000DB0F4940CB
:100D5C00CDCCCC3D0000003F0000803F0000204186
:100D6C008096184B20BCBE4CFE2374497F96184BC2
:100D7C00FFFC7800FFFC7800FFFC7800FFFC78009B
:100D8C00000E0000038E0000038E0000038FF8009D
:100D9C0003FFF8001FFFE000FFFE0000FF8E0000C5
:100DAC00838E0000038E0800038FF80003FFF80009
:100DBC003FFFE000FFFE0000FF8E0000838E00006E
:100DCC00038E0000038000007F800000FFC0000045
:100DDC00C0C00000C0C00000C0C00800C0C01800E7
:100DEC00C1C07000FFC0E0007F838000000F0000D6
:100DFC00001C00000070000000E0000003800000F8
:100E0C00070000001C0FE000783FF000E0301800F5
:100E1C00C030180080301800003018000030380046
:100E2C00003FF800001FF0000FFFFE007FFFFFC027
:100E3C007FFFFFC0FFFFFFE0F00001E0E00000E0FB
:100E4C00E00000E0E00000E0E00000E0F80003E07B
:100E5C00FFFFFFE07FFFFFC07FFFFFC00FFFFE0023
:100E6C00080000001800000018C000001DE0000081
:100E7C000F800000FF000000FF0000000F8000004A
:100E8C001DE0000018C00000180000000800000061
:100E9C000070000000700000007000000070000086
:100EAC0000700000007000003FFFC0003FFFC0005A
:100EBC003FFFC0003FFFC00000700000007000004A
:100ECC000070000000700000007000000070000056
:100EDC00000001000000790000007B0000007F0092
:100EEC0000007E00001C0000001C0000001C000024
:100EFC00001C0000001C0000001C0000001C000076
:100F0C0000007800000078000000780000007800F5
:100F1C000000002000000060000001E0000003C0A1
:100F2C0000000F8000003E00000078000001F0007F
:100F3C000003C000000F0000003E0000007800001D
:100F4C0001E0000007C000000F0000003C000000A2
:100F5C00F8000000E0000000C00000000FFF80005F
:100F6C003FFFE0007FFFF0007FFFF000F001F80092
:100F7C00E0007800E0003800E0003800E0003800C5
:100F8C00E0003800E0003800E0003800E0003800F5
:100F9C00F00078007FFFF0007FFFF0003FFFE000E3
:100FAC000FFF800002000000070000000F8000000F
:100FBC001F0000003E0000007C000000F800000054
:100FCC00F0000000FFFFF800FFFFF800FFFFF80043
:100FDC00FFFFF8001E07F8007E0FF8007E0FF800E8
:100FEC00FE1FF800F01E3800E01C3800E01C380032
:100FFC00E03C3800E03C3800E0383800E03838009D
:10100C00F0783800FFF838007FF038003FF03800F7
:10101C001FC038000003C0003E03F0007E03F00048
:10102C007E03F800F0007800E0003800E0003800A3
:10103C00E0703800E0703800E0703800E070380084
:10104C00E0703800F0F87800FFDFF8007FDFF00088
:10105C007F9FF0001F07C000001F0000003F000032
:10106C0000FF000001FF000003E700000FC70000B5
:10107C001F8700003E0700007C070000F8070000F7
:10108C00E0070000FFFFF800FFFFF800FFFFF8008B
:10109C00FFFFF80000070000000700000007000039
:1010AC00FFE1E000FFE1F000FFE1F000FFE1F800FC
:1010BC00E1C03800E1803800E3803800E38038007C
:1010CC00E3803800E3803800E3803800E3C0780028
:1010DC00E3FFF000E1FFF000E0FFE000007F8000A4
:1010EC000FFF80003FFFE0007FFFF000FFFFF000EC
:1010FC00F0707800E0603800E0E03800E0E03800A4
:10110C00E0E03800E0E03800E0E03800F0F0780093
:10111C00FCFFF8007C7FF0007C7FF0001C1FC000FF
:10112C00E0000000E0000000E0000000E00018001B
:10113C00E0007800E001F800E007F800E01FF000A4
:10114C00E07F8000E1FE0000EFF80000FFE000000F
:10115C00FF800000FE000000F80000003F0FC00000
:10116C007F9FF0007FFFF000FFFFF800F1F87800A0
:10117C00E0F03800E0F03800E0F03800E0F0380043
:10118C00E0F03800E0F03800F1F87800FFFFF800EC
:10119C007FFFF0007F9FF0003F0FC0000001C000F8
:1011AC001FC1F0007FF1F0007FF1F800FFF8F800AC
:1011BC00F0783800E0383800E0383800E038380093
:1011CC00E0383800E0383800E0303800F060780063
:1011DC00FFFFF0007FFFF0007FFFE0000FFF8000BB
:1011EC0000F0000000F0000001F8000001F8000021
:1011FC0003FC0000039C0000039E0000070E00008F
:10120C00070F00000E0700000E0780001C03800073
:10121C001C03C0003C01E000038E0000038E0000A4
:10122C00038E0000038E0000038E0000038E00006E
:10123C00038E0000038E0000038E0000038E00005E
:10124C00038E0000038E0000038E0000038E00004E
:10125C00038E0000038E00003C01E0001C03C00064
:10126C001C0380000E0780000E070000070F000013
:10127C00070E0000039E0000039C000003FC00000E
:10128C0001F8000001F8000000F0000000F0000080
:10129C003C0000007C000000FC000000F00000009E
:1012AC00E03C7800E03C7800E07C7800E078780066
:1012BC00E0F00000F0E000007FE000007FC00000E4
:1012CC003F800000FFFFFFE0FFFFFFE0FFFFFFE0BC
:1012DC00FFFFFFE0E00000E0E00000E0E00000E0E5
:1012EC00E00000E0E00000E0FFFFFFE0FFFFFFE0B8
:1012FC00FFFFFFE0FFFFFFE02108BE062324C60628
:10130C002530EA06280E1A07290E28072A18360750
:10131C002B204E072C0A6E072E0886072F268E07C9
:10132C003024B4073118D8073220F00733221008C4
:10133C00342432083520560836207608371E960895
:10134C003820B4083922D4085B0E68095D0C760984
:08135C00000082091B0808953E
:00000001FF
